:100000000C9434000C9451000C9451000C94510049
:100010000C9451000C9451000C9451000C9451001C
:100020000C9451000C9451000C9451000C9451000C
:100030000C9451000C9451000C9451000C945100FC
:100040000C9451000C9451000C9451000C945100EC
:100050000C9451000C9451000C9451000C945100DC
:100060000C9451000C94510011241FBECFEFD8E026
:10007000DEBFCDBF11E0A0E0B1E0E4EEF0E002C0F1
:1000800005900D92AA30B107D9F721E0AAE0B1E0BE
:1000900001C01D92AA30B207E1F70E946B000C94D8
:1000A00070000C9400008AB11AB8089580E010C066
:1000B000E82FF0E0E050FF4F90819BB92FEF33ED38
:1000C00090E3215030409040E1F700C000008F5F86
:1000D0008A3070F308950E9453000E945600FDCFAD
:0400E000F894FFCFC2
:0A00E4003F065B4F666D7D077F6FDE
:00000001FF
