:100000000C9434000C9446000C9446000C9446006A
:100010000C9446000C9446000C9446000C94460048
:100020000C9446000C9446000C9446000C94460038
:100030000C9446000C9446000C9446000C94460028
:100040000C9448000C9446000C9446000C94460016
:100050000C9446000C9446000C9446000C94460008
:100060000C9446000C94460011241FBECFEFD8E03C
:10007000DEBFCDBF21E0A0E0B1E001C01D92A23003
:10008000B207E1F70E9488000C948E000C940000E7
:100090001F920F920FB60F9211242F938F939F935D
:1000A0008091000190910101813D934048F095B10C
:1000B00084E0892785B9109201011092000109C0DE
:1000C000809100019091010101969093010180932C
:1000D00000019F918F912F910F900FBE0F901F9055
:1000E000189584B1846084B985B18B7F85B90895F2
:1000F00016BC84B58C7F84BD85B5826085BD85B511
:100100008B7F85BDEEE6F0E080818160808308957D
:100110000E9471000E9478007894FFCFF894FFCF7E
:00000001FF
