S01C0000756172745F737472696E675F7472616E736D69742E7372656385
S11300000C9434000C9449000C9449000C9449005D
S11300100C9449000C9449000C9449000C94490038
S11300200C9449000C9449000C9449000C94490028
S11300300C9449000C9449000C9449000C94490018
S11300400C9449000C9449000C9449000C94490008
S11300500C9449000C9449000C9449000C944900F8
S11300600C9449000C94490011241FBECFEFD8E032
S1130070DEBFCDBF11E0A0E0B1E0E6E2F1E002C0F6
S113008005900D92A830B107D9F70E9477000C941F
S113009091000C9400001092C50087E68093C40080
S11300A0E2ECF0E08081866080838081877F8083BA
S11300B080818F7C8083E1ECF0E0808188608083A4
S11300C00895FC0110C08093C6009091C00095FF74
S11300D0FCCF2FEF83EC99E0215080409040E1F772
S11300E000C00000319680818111EDCF0895CF9337
S11300F0DF93CDB7DEB728970FB6F894DEBF0FBEF7
S1130100CDBF88E0E0E0F1E0DE01119601900D92B0
S11301108A95E1F70E944B00CE0101960E9461008E
S1090120FBCFF894FFCFB1
S10B012648656C6C6F210A00AE
S9030000FC
