:100000000C9434000C943E000C943E000C943E0082
:100010000C943E000C943E000C943E000C943E0068
:100020000C943E000C943E000C943E000C943E0058
:100030000C943E000C943E000C943E000C943E0048
:100040000C943E000C943E000C943E000C943E0038
:100050000C943E000C943E000C943E000C943E0028
:100060000C943E000C943E0011241FBECFEFD8E04C
:10007000DEBFCDBF0E9440000C947B000C940000BA
:100080008AB18B7F8AB98BB184608BB987B180626A
:1000900087B988B18F7D88B94A99FECF2FEF89EF54
:1000A00090E0215080409040E1F700C000004A9964
:1000B000F3CF98B180E2892788B980E009C0EFE3E7
:1000C000FCE93197F1F700C000004A9911C08F5F39
:1000D0008233A8F30DC098B180E2892788B9FFEF79
:1000E00023EC89E0F15020408040E1F700C000009F
:0A00F0004A9BF1CFD1CFF894FFCF67
:00000001FF
