S02500006563686F5F72656369657665645F646174615F7573696E675F756172742E7372656321
S11300000C9434000C943E000C943E000C943E007E
S11300100C943E000C943E000C943E000C943E0064
S11300200C943E000C943E000C943E000C943E0054
S11300300C943E000C943E000C943E000C943E0044
S11300400C943E000C943E000C943E000C943E0034
S11300500C943E000C943E000C943E000C943E0024
S11300600C943E000C943E0011241FBECFEFD8E048
S1130070DEBFCDBF0E946A000C949C000C9400006B
S11300801092C50087E68093C400A1ECB0E08C9187
S11300908B7F8C93E2ECF0E08081866080838081AA
S11300A0877F808380818F7C80838C9188618C930F
S11300B00895AC0120E007C09091C00095FFFCCFEB
S11300C03093C6002F5FFA01E20FF11D3081311128
S11300D0F3CF0895CF93DF93CDB7DEB7E2970FB692
S11300E0F894DEBF0FBECDBF0E94400080E0982F81
S11300F08091C0008823E4F781E0890F2091C60035
S1130100E1E0F0E0EC0FFD1FE90FF11D2083282F43
S113011030E0F901319741E050E04C0F5D1FE40FEE
S1130120F51F90819A3019F7FA01E20FF31F10823C
S10F0130CA010E945900DACFF894FFCFF6
S9030000FC
