:100000000C9434000C9449000C9449000C94490061
:100010000C9449000C9449000C9449000C9449003C
:100020000C9449000C9449000C9449000C9449002C
:100030000C9449000C9449000C9449000C9449001C
:100040000C9449000C9449000C9449000C9449000C
:100050000C9449000C9449000C9449000C944900FC
:100060000C9449000C94490011241FBECFEFD8E036
:10007000DEBFCDBF11E0A0E0B1E0E0EBF1E002C0F7
:1000800005900D92A032B107D9F70E9458000C9448
:10009000D6000C94000084B18C6284B984B18F7E48
:1000A00084B98CB581658CBD8CB5817F8CBD08957C
:1000B0000E944B000E94760085B18B7F85B980ED50
:1000C0008EBD0DB407FEFDCF8EB51EBC0DB407FE70
:1000D000FDCFCEB585B1846085B980E091E00E9406
:1000E0008C008C2F90E00E949900E6CF1092C50002
:1000F00087E68093C400E2ECF0E080818660808334
:100100008081877F808380818F7C8083E1ECF0E039
:100110008081886080830895FC0107C08093C600B9
:100120009091C00095FFFCCF319680818111F6CF70
:100130000895CF93DF93CDB7DEB766970FB6F894E7
:10014000DEBF0FBECDBF91E1EEE0F1E0DE01119622
:1001500001900D929A95E1F7982F92959F70E1E0AA
:10016000F0E0EC0FFD1FE90FF11D90819A8B8F706D
:10017000E1E0F0E0EC0FFD1FE80FF11D80818B8BBB
:100180008DE08C8B8AE08D8B1E8A8BE091E00E9443
:100190008C00CE0142960E948C0066960FB6F894B1
:1001A000DEBF0FBECDBFDF91CF910895F894FFCF92
:1001B00043686970204944203A20003058003031AB
:1001C00032333435363738394142434445460000EE
:00000001FF
