S0180000636F756E745F646F776E5F74696D65722E737265634C
S11300000C9434000C9451000C9451000C94510045
S11300100C9451000C9451000C9451000C94510018
S11300200C9451000C9451000C9451000C94510008
S11300300C9451000C9451000C9451000C945100F8
S11300400C9451000C9451000C9451000C945100E8
S11300500C9451000C9451000C9451000C945100D8
S11300600C9451000C94510011241FBECFEFD8E022
S1130070DEBFCDBF11E0A0E0B1E0E8EFF2E002C0E6
S113008005900D92AC30B107D9F721E0ACE0B1E0B6
S113009001C01D92AE30B207E1F70E941A010C9420
S11300A07A010C94000085B1806485B985E08A9555
S11300B0F1F7000085B18F7B85B987EC90E001975B
S11300C0F1F700C0000008959BB19F709BB92BB15C
S11300D030E1839FC00111242F70822B8BB90E94C1
S11300E053000895CF93C82F613021F485B18068FF
S11300F085B903C085B18F7785B98C2F82958F70B0
S11301000E9464008C2F8F700E946400CF91089528
S1130110CF93C82F60E00E947200C150C23030F407
S11301208FE39FE10197F1F700C00000CF9108959C
S113013084B1806884B984B1806484B98AB1806FE1
S11301408AB92FEF89EF90E0215080409040E1F789
S113015000C0000085B18F7785B985B18F7B85B9E3
S113016083E00E9464002AE12A95F1F700C083E04D
S11301700E94640087E592E00197F1F700C0000057
S113018083E00E94640087E592E00197F1F700C0E4
S1130190000082E00E94640087E592E00197F1F795
S11301A000C0000088E20E94880088E00E94880065
S11301B081E00E94880086E00E9488008CE00E9412
S11301C08800089561E00E9472000895882311F068
S11301D090E401C090E0862F8F70890F80680E94A0
S11301E088000895CF93DF93EC0103C021960E9409
S11301F0E20088818111FACFDF91CF910895CF93E6
S1130200DF9300D000D000D0CDB7DEB74AE050E095
S1130210BE016F5F7F4F0E944501CE0101960E948F
S1130220F20026960FB6F894DEBF0FBECDBFDF9165
S1130230CF9108950E94980078940E942001FDCFE8
S113024062E080E00E94E60080E091E00E94F2001B
S113025064E081E00E94E60080910C0190910D0120
S11302600E94FF0066E081E00E94E6008AE091E0DF
S11302700E94F20067E081E00E94E60080910C0198
S113028090910D010E94FF0008954532510520F41C
S1130290423010F00C945001FB011082CB01089500
S11302A0BB27FB015527AA27880F991FAA1FA4174C
S11302B010F0A41B83955051B9F7A05DAA3308F040
S11302C0A95DA193009779F7B111B1931192CB0174
S11302D00C946A01DC01FC01672F71917723E1F72B
S11302E0329704C07C916D9370836291AE17BF07FF
S10B02F0C8F30895F894FFCF50
S10F02F85345542054494D4552003A002F
S9030000FC
