:100000000C9434000C9448000C9446000C94460068
:100010000C9446000C9446000C9446000C94460048
:100020000C9446000C9446000C9446000C94460038
:100030000C9446000C9446000C9446000C94460028
:100040000C9446000C9446000C9446000C94460018
:100050000C9446000C9446000C9446000C94460008
:100060000C9446000C94460011241FBECFEFD8E03C
:10007000DEBFCDBF21E0A0E0B1E001C01D92A13004
:10008000B207E1F70E94B7000C9414020C94000030
:100090001F920F920FB60F9211248F939F939091FE
:1000A000000181E0911180E0809300019F918F9188
:1000B0000F900FBE0F901F901895E9E6F0E0808139
:1000C0008260808380818E7F80838DB381608DBBD1
:1000D00008958AB18B7F8AB98BB184608BB984B162
:1000E000806384B9089584B1826084B9E0E8F0E067
:1000F000808182608083A1E8B0E08C9188618C93DC
:100100008C9181608C938081806880838FE396E0FE
:100110009093870080938600109289001092880047
:100120000895ECE7F0E080818064808380818068BE
:100130008083EAE7F0E08081806880838081876047
:1001400080830895ECE7F0E09081907F8770892BA1
:100150008083EAE7F0E080818064808380917A0088
:1001600086FDFCCF809178009091790008950E94DF
:1001700069000E9473000E9491000E945D007894C3
:10018000809100018823D9F085B18F7D85B985B133
:10019000806185B980E00E94A200BC0180E090E00F
:1001A0000E94190127E231E348EC5FE30E947F01DE
:1001B0000E94EA007093890060938800E1CF85B1C6
:1001C0008F7E85B985B1806285B9109289001092C1
:1001D0008800D6CF0E945E0188F09F5798F0B92F13
:1001E0009927B751B0F0E1F0660F771F881F991F6C
:1001F0001AF0BA95C9F714C0B13091F00E94780195
:10020000B1E008950C947801672F782F8827B85FA4
:1002100039F0B93FCCF3869577956795B395D9F7C3
:100220003EF490958095709561957F4F8F4F9F4FCD
:100230000895E89409C097FB3EF4909580957095D9
:1002400061957F4F8F4F9F4F9923A9F0F92F96E922
:10025000BB279395F695879577956795B795F11197
:10026000F8CFFAF4BB0F11F460FF1BC06F5F7F4F34
:100270008F4F9F4F16C0882311F096E911C0772346
:1002800021F09EE8872F762F05C0662371F096E84F
:10029000862F70E060E02AF09A95660F771F881F1E
:1002A000DAF7880F9695879597F9089557FD905836
:1002B000440F551F59F05F3F71F04795880F97FB2A
:1002C000991F61F09F3F79F08795089512161306E4
:1002D0001406551FF2CF4695F1DF08C01616170613
:1002E0001806991FF1CF8695710561050894089548
:1002F000E894BB2766277727CB0197F908950E94DA
:1003000092010C9403020E94F50138F00E94FC0156
:1003100020F0952311F00C94EC010C94F2011124BF
:100320000C9479010E94560170F3959FC1F3950FCB
:1003300050E0551F629FF001729FBB27F00DB11D69
:10034000639FAA27F00DB11DAA1F649F6627B00DF9
:10035000A11D661F829F2227B00DA11D621F739FE2
:10036000B00DA11D621F839FA00D611D221F749FF0
:100370003327A00D611D231F849F600D211D822F37
:10038000762F6A2F11249F5750409AF0F1F088235E
:100390004AF0EE0FFF1FBB1F661F771F881F91508B
:1003A0005040A9F79E3F510580F00C94EC010C944D
:1003B00079015F3FE4F3983ED4F38695779567958E
:1003C000B795F795E7959F5FC1F7FE2B880F911DB5
:1003D0009695879597F9089597F99F6780E870E05B
:1003E00060E008959FEF80EC089500240A941616AB
:1003F000170618060906089500240A941216130613
:10040000140605060895092E0394000C11F48823A0
:1004100052F0BB0F40F4BF2B11F460FF04C06F5FBC
:0C0420007F4F8F4F9F4F0895F894FFCF3F
:00000001FF
