:100000000C9434000C943E000C943E000C943E0082
:100010000C943E000C943E000C943E000C943E0068
:100020000C943E000C943E000C943E000C94400056
:100030000C943E000C943E000C943E000C943E0048
:100040000C943E000C943E000C943E000C943E0038
:100050000C943E000C943E000C943E000C943E0028
:100060000C943E000C943E0011241FBECFEFD8E04C
:10007000DEBFCDBF0E9474000C947A000C94000087
:100080001F920F920FB60F9211248F939F9395B1E9
:1000900084E0892785B99F918F910F900FBE0F90B3
:1000A0001F90189584B1846084B985B18B7F85B920
:1000B00008951092850010928400E1E8F0E08081BC
:1000C0008860808380818560808380818D7F80834C
:1000D00084E89EE19093890080938800EFE6F0E049
:1000E00080818260808308950E9459000E9452009E
:0800F0007894FFCFF894FFCFD4
:00000001FF
