:100000000C9434000C943E000C943E000C943E0082
:100010000C943E000C943E000C943E000C943E0068
:100020000C943E000C943E000C943E000C943E0058
:100030000C943E000C943E000C943E000C943E0048
:100040000C943E000C943E000C943E000C943E0038
:100050000C943E000C943E000C943E000C943E0028
:100060000C943E000C943E0011241FBECFEFD8E04C
:10007000DEBFCDBF0E9470000C947A000C9400008B
:100080008BB184608BB92FEF87EA91E621508040D5
:100090009040E1F700C000008BB18B7F8BB90895D1
:1000A0008BB188608BB92FEF87EA91E621508040B1
:1000B0009040E1F700C000008BB1877F8BB90895B5
:1000C0008BB180618BB92FEF87EA91E62150804098
:1000D0009040E1F700C000008BB18F7E8BB908958E
:1000E0008AB18C618AB90E9440000E9450000E942F
:0800F0006000F9CFF894FFCF86
:00000001FF
