:100000000C9434000C943E000C943E000C943E0082
:100010000C943E000C943E000C943E000C943E0068
:100020000C943E000C943E000C943E000C943E0058
:100030000C943E000C943E000C943E000C943E0048
:100040000C943E000C943E000C943E000C943E0038
:100050000C943E000C943E000C943E000C943E0028
:100060000C943E000C943E0011241FBECFEFD8E04C
:10007000DEBFCDBF0E9457000C9467000C940000B7
:100080008AB180648AB984B58D7F84BD84B581606E
:1000900084BD84B58F7B84BD84B5806884BD85B5FF
:1000A0008A7F85BD85B5826085BD17BC08950E9495
:1000B00040008FEF90E087BD2FEF30E742E0215006
:1000C00030404040E1F700C000000197F4CFF894C1
:0200D000FFCF60
:00000001FF
