:100000000C9434000C943E000C943E000C943E0082
:100010000C943E000C943E000C943E000C943E0068
:100020000C943E000C943E000C943E000C943E0058
:100030000C943E000C943E000C943E000C943E0048
:100040000C943E000C943E000C943E000C943E0038
:100050000C943E000C943E000C943E000C943E0028
:100060000C943E000C943E0011241FBECFEFD8E04C
:10007000DEBFCDBF0E9455000C9462000C940000BE
:1000800016BC84B58C7F84BD85B58D7F85BD85B557
:10009000856085BD90E006C0A89BFECF85B38160DA
:1000A00085BB9F5F9D33C0F308958AB180628AB992
:1000B0008BB18F7D8BB99BB180E289278BB90E9470
:0800C0004000F9CFF894FFCFD6
:00000001FF
