S01E0000646F75626C655F70726573735F646574656374696F6E2E73726563E1
S11300000C9434000C943E000C943E000C943E007E
S11300100C943E000C943E000C943E000C943E0064
S11300200C943E000C943E000C943E000C943E0054
S11300300C943E000C943E000C943E000C943E0044
S11300400C943E000C943E000C943E000C943E0034
S11300500C943E000C943E000C943E000C943E0024
S11300600C943E000C943E0011241FBECFEFD8E048
S1130070DEBFCDBF0E9440000C9474000C940000BD
S113008084B18F7784B985B1806885B984B1806281
S113009084B985B18F7D85B91F99FECF2FEF89EF84
S11300A090E0215080409040E1F700C000001F998B
S11300B0F3CF1F9BFECF80E00DC0EFE3FCE9319747
S11300C0F1F700C000001F9904C01F9BFECF81E020
S11300D004C08F5F883288F380E08823E9F295B109
S10F00E080E2892785B9D8CFF894FFCFBF
S9030000FC
