S0220000766F6C756D655F627574746F6E5F6175746F7265706561742E632E7372656345
S11300000C9434000C943E000C943E000C943E007E
S11300100C943E000C943E000C943E000C943E0064
S11300200C943E000C943E000C943E000C943E0054
S11300300C943E000C943E000C943E000C943E0044
S11300400C943E000C943E000C943E000C943E0034
S11300500C943E000C943E000C943E000C943E0024
S11300600C943E000C943E0011241FBECFEFD8E048
S1130070DEBFCDBF0E946F000C94A5000C9400005D
S113008095B1907C95B9882319F095B1916095B993
S1130090823018F095B1926095B9833018F095B11B
S11300A0946095B9843018F095B1986095B985300D
S11300B018F095B1906195B9863018F085B18062D9
S11300C085B908958AB18B7F8AB98BB184608BB965
S11300D084B18F6384B985B1807C85B908950E9409
S11300E06200C0E04A99FECF2FEF89EF90E02150E3
S11300F080409040E1F700C000004A99F3CFC63039
S113010008F4CF5F8C2F0E94400080E009C0EFE329
S1130110FCE93197F1F700C000004A9913C08F5FE2
S11301208233A8F30FC0C63020F4CF5F8C2F0E9417
S11301304000FFEF23EC89E0F15020408040E1F7DC
S111014000C000004A9BEFCFCDCFF894FFCF54
S9030000FC
