:100000000C9434000C9446000C9446000C9446006A
:100010000C9446000C9446000C9446000C94460048
:100020000C9446000C9446000C9446000C94460038
:100030000C9446000C9446000C9446000C94460028
:100040000C9446000C9446000C9446000C94460018
:100050000C9446000C9446000C9446000C94460008
:100060000C9446000C94460011241FBECFEFD8E03C
:10007000DEBFCDBF21E0A0E0B1E001C01D92A43001
:10008000B207E1F70E94CA000C941E010C94000014
:100090001092C50087E68093C400E2ECF0E0808116
:1000A000866080838081877F808380818F7C80834E
:1000B000E1ECF0E08081886180830895FC0107C055
:1000C0009091C00095FFFCCF31968093C60080814F
:1000D0008111F6CF08950F931F93CF93DF93CDB780
:1000E000DEB728970FB6F894DEBF0FBECDBF4AE04B
:1000F00050E08E010F5F1F4FB80180910101909178
:1001000002010E94E900F80101900020E9F731970F
:100110008DE09AE0918380831282C8010E945E0084
:1001200028960FB6F894DEBF0FBECDBFDF91CF91FA
:100130001F910F91089580910301883729F410923F
:100140000201109201011FC08D3271F42091010152
:10015000309102012115310539F0215031093093D8
:100160000201209301010FC08B3269F480910101DB
:10017000909102018F3027E2920728F40196909324
:1001800002018093010180910101909102010E947E
:100190006B0008950E9448008091C0008823E4F716
:1001A0008091C60080930301813331F420910001D6
:1001B00091E092279093000190910001992361F3BF
:1001C0008B3221F08D3211F0883731F70E949B007D
:1001D000E3CF4532510520F4423010F00C94F40086
:1001E000FB011082CB010895BB27FB015527AA27ED
:1001F000880F991FAA1FA41710F0A41B83955051B4
:10020000B9F7A05DAA3308F0A95DA193009779F72B
:10021000B111B1931192CB010C940E01DC01FC01E0
:10022000672F71917723E1F7329704C07C916D932A
:1002300070836291AE17BF07C8F30895F894FFCF9B
:00000001FF
