:100000000C9434000C9449000C9449000C94490061
:100010000C9449000C9449000C9449000C9449003C
:100020000C9449000C9449000C9449000C9449002C
:100030000C9449000C9449000C9449000C9449001C
:100040000C9449000C9449000C9449000C9449000C
:100050000C9449000C9449000C9449000C944900FC
:100060000C9449000C94490011241FBECFEFD8E036
:10007000DEBFCDBF11E0A0E0B1E0E6E3F3E002C0F7
:1000800005900D92A234B107D9F70E9470000C942C
:1000900099010C94000084B18C6284B984B18F7E84
:1000A00084B98FE58CBD08958EBD0DB407FEFDCFDC
:1000B0008EB5089585B18B7F85B980E60E94540086
:1000C00086EB0E94540085B1846085B92FEF81EEE4
:1000D00094E0215080409040E1F700C00000089576
:1000E0000E944B000E941B012FEF81EE94E02150F3
:1000F00080409040E1F700C0000080E091E00E9465
:100100002E0185B18B7F85B980ED0E94540080E07F
:100110000E945400C82F85B1846085B981E291E0C6
:100120000E942E016C2F70E080E090E00E943B0165
:100130008EE191E00E942E010E945A0085B18B7FD2
:1001400085B984E70E94540085E20E94540085B17D
:10015000846085B985B18B7F85B983EF0E94540097
:1001600080E00E945400C82F85B1846085B98FE378
:100170009CE90197F1F700C00000C3FDEBCF85B10A
:100180008B7F85B98AEF0E94540080E00E94540062
:10019000C82E80E00E945400F82E80E00E94540097
:1001A00095B1946095B94C2D50E060E070E0032E5D
:1001B0003CE0440F551F661F771F3A95D1F7302D4D
:1001C000CF2CD12CE12CF12CCC0CDD1CEE1CFF1C17
:1001D000CC0CDD1CEE1CFF1CCC0CDD1CEE1CFF1C33
:1001E000CC0CDD1CEE1CFF1CC42AD52AE62AF72AFB
:1001F00082958F70C82A8BE291E00E942E016C2FAD
:1002000070E080E090E00E943B0184E391E00E9476
:100210002E01C701B6010E943B018EE191E00E94D0
:100220002E019FEF23ED80E3915020408040E1F7C5
:1002300000C0000083CF1092C50087E68093C40001
:1002400088E08093C10086E08093C2000895909179
:10025000C00095FFFCCF8093C6000895CF93DF9335
:10026000EC0103C021960E94270188818111FACFF9
:10027000DF91CF910895CF93DF93CDB7DEB72C9761
:100280000FB6F894DEBF0FBECDBF2AE0AE014F5FC0
:100290005F4F0E945801CE0101960E942E012C96BC
:1002A0000FB6F894DEBF0FBECDBFDF91CF9108959A
:1002B000BB272A3051F4992342F4BDE290958095F2
:1002C000709561957F4F8F4F9F4F0C946801BB27AE
:1002D000FA01A62F6217710581059105330B30FBDA
:1002E00066F0AA27660F771F881F991FAA1FA217FB
:1002F00010F0A21B63953850A9F7A05DAA3308F04F
:10030000A95DA19336F7B111B1931082CA010C9483
:100310008901DC01FC01672F71917723E1F73297A6
:1003200004C07C916D9370836291AE17BF07C8F3D0
:060330000895F894FFCFD0
:100336000D0A2D2D2D20424D50323830204D6F6440
:1003460065203320466F72636564202D2D2D0D0ABE
:1003560000436869702049443A20005374617475FB
:10036600733A2000207C205261772054656D703AE4
:02037600200065
:00000001FF
