S01E00006C65645F636F6E74726F6C5F7573696E675F756172742E73726563D1
S11300000C9434000C943E000C943E000C943E007E
S11300100C943E000C943E000C943E000C943E0064
S11300200C943E000C943E000C943E000C943E0054
S11300300C943E000C943E000C943E000C943E0044
S11300400C943E000C943E000C943E000C943E0034
S11300500C943E000C943E000C943E000C943E0024
S11300600C943E000C943E0011241FBECFEFD8E048
S1130070DEBFCDBF0E9456000C9471000C940000AA
S11300801092C50087E68093C400E2ECF0E0808122
S1130090866080838081877F808380818F7C80835A
S11300A0E1ECF0E080818861808308958AB1806406
S11300B08AB90E94400090E08091C00088233CF0FF
S11300C08091C600813311F491E001C090E099233E
S11300D021F08BB180648BB9EFCF8BB18F7B8BB95F
S10900E0EBCFF894FFCF02
S9030000FC
