S020000074696D6572305F31735F64656C61795F6374635F6D6F64652E73726563A5
S11300000C9434000C943E000C943E000C943E007E
S11300100C943E000C943E000C943E000C943E0064
S11300200C943E000C943E000C943E000C943E0054
S11300300C943E000C943E000C943E000C943E0044
S11300400C943E000C943E000C943E000C943E0034
S11300500C943E000C943E000C943E000C943E0024
S11300600C943E000C943E0011241FBECFEFD8E048
S1130070DEBFCDBF0E9463000C9470000C9400009E
S113008087EC87BD84B58E7F84BD84B5826084BDD2
S113009085B5897F85BD85B5816085BD40E050E02B
S11300A0BA0109C0A99BFECF85B3826085BB4F5FAF
S11300B05F4F6F4F7F4F403888E3580781E06807F0
S11300C0710580F308958AB180628AB98BB18F7DFE
S11300D08BB99BB180E289278BB90E944000F9CF8C
S10700E0F894FFCFBE
S9030000FC
